:020000040800F2
:1000000000000520E14100085D1300085F130008AF
:100010006113000863130008651300080000000066
:10002000000000000000000000000000671300084E
:1000300069130008000000006B1300086D1300082E
:1000400031420008314200083142000831420008C4
:1000500031420008314200083142000831420008B4
:1000600031420008314200083142000831420008A4
:100070003142000831420008314200083142000894
:100080003142000831420008314200083142000884
:100090003142000831420008314200083142000874
:1000A0003142000831420008314200083142000864
:1000B0003142000831420008314200083142000854
:1000C0003142000831420008314200083142000844
:1000D0003142000831420008314200083142000834
:1000E0003142000831420008314200083142000824
:1000F0003142000831420008314200083142000814
:100100003142000831420008314200083142000803
:1001100031420008314200083142000831420008F3
:1001200031420008314200083142000831420008E3
:1001300031420008314200083142000831420008D3
:1001400031420008314200083142000831420008C3
:1001500031420008314200083142000831420008B3
:1001600031420008314200083142000831420008A3
:10017000314200083142000831420008000000000E
:100180003142000831420008314200083142000883
:10019000314200087513000831420008314200085E
:1001A0003142000831420008314200083142000863
:1001B0003142000831420008314200083142000853
:0801C000314200083142000841
:1001D00010B5054C237833B9044B13B10448AFF381
:1001E00000800123237010BD70000020000000007B
:1001F000A44B000808B5034B1BB103490348AFF3F8
:10020000008008BD0000000074000020A44B00081E
:10021000034613F8012B002AFBD1181A0138704746
:1002200001F0FF01102A2BDB10F0070F08D010F8A7
:10023000013B013A8B422DD010F0070F42B3F6D1AB
:10024000F0B441EA012141EA014122F007047FF0C4
:1002500000070023F0E80256083C85EA010586EA1B
:10026000010685FA47F5A3FA87F586FA47F6A5FA57
:1002700087F68EB9EED1F0BC01F0FF0102F0070263
:1002800032B110F8013B013A83EA010313B1F8D10E
:100290000020704701387047002D06BF35460338EF
:1002A000073815F0010F07D1013015F4807F02BF28
:1002B000013015F4C03F0130F0BC0138704700BF79
:1002C00070B54FF0FF0C4CF4E06C1CEA11541DBFEC
:1002D0001CEA135594EA0C0F95EA0C0F00F0DEF8B7
:1002E0002C4481EA030621EA4C5123EA4C5350EA9C
:1002F000013518BF52EA033541F4801143F48013ED
:1003000038D0A0FB02CE4FF00005E1FB02E506F07D
:100310000042E0FB03E54FF00006E1FB03569CF0D2
:10032000000F18BF4EF0010EA4F1FF04B6F5007FD8
:1003300064F5407404D25FEA4E0E6D4146EB06064A
:1003400042EAC62141EA55514FEAC52040EA5E50D3
:100350004FEACE2EB4F1FD0C88BFBCF5E06F1ED87D
:10036000BEF1004F08BF5FEA500E50F1000041EBB4
:10037000045170BD06F0004646EA010140EA020061
:1003800081EA0301B4EB5C04C2BFD4EB0C0541EA83
:10039000045170BD41F480114FF0000E013C00F398
:1003A000AB8014F1360FDEBF002001F0004170BDBC
:1003B000C4F10004203C35DA0C341BDC04F11404D5
:1003C000C4F1200500FA05F320FA04F001FA05F261
:1003D00040EA020001F0004221F0004110EBD3702E
:1003E00021FA04F642EB06015EEA430E08BF20EA5A
:1003F000D37070BDC4F10C04C4F1200500FA04F3FD
:1004000020FA05F001FA04F240EA020001F000418E
:1004100010EBD37041F100015EEA430E08BF20EA01
:10042000D37070BDC4F1200500FA05F24EEA020E49
:1004300020FA04F301FA05F243EA020321FA04F078
:1004400001F0004121FA04F220EA020000EBD3702F
:100450005EEA430E08BF20EAD37070BD94F0000F2F
:100460000FD101F00046400041EB010111F4801F63
:1004700008BF013CF7D041EA060195F0000F18BF14
:10048000704703F00046520043EB030313F4801F50
:1004900008BF013DF7D043EA0603704794EA0C0F0A
:1004A0000CEA135518BF95EA0C0F0CD050EA410620
:1004B00018BF52EA4306D1D181EA030101F000419D
:1004C0004FF0000070BD50EA410606BF10461946C5
:1004D00052EA430619D094EA0C0F02D150EA0136D1
:1004E00013D195EA0C0F05D152EA03361CBF104612
:1004F00019460AD181EA030101F0004141F0FE41B1
:1005000041F470014FF0000070BD41F0FE4141F434
:10051000780170BD81F0004102E000BF83F000432C
:1005200030B54FEA41044FEA430594EA050F08BF8E
:1005300090EA020F1FBF54EA000C55EA020C7FEA52
:10054000645C7FEA655C00F0E2804FEA5454D4EBCF
:100550005555B8BF6D420CDD2C4480EA020281EA99
:10056000030382EA000083EA010180EA020281EAD1
:100570000303362D88BF30BD11F0004F4FEA013123
:100580004FF4801C4CEA113102D0404261EB410132
:1005900013F0004F4FEA03334CEA133302D05242B8
:1005A00063EB430394EA050F00F0A780A4F1010474
:1005B000D5F1200E0DDB02FA0EFC22FA05F28018AE
:1005C00041F1000103FA0EF2801843FA05F3594194
:1005D0000EE0A5F120050EF1200E012A03FA0EFC13
:1005E00028BF4CF0020C43FA05F3C01851EBE3713D
:1005F00001F0004507D54FF0000EDCF1000C7EEB5A
:1006000000006EEB0101B1F5801F1BD3B1F5001F97
:100610000CD349085FEA30004FEA3C0C04F10104B6
:100620004FEA445212F5800F80F09A80BCF1004FDF
:1006300008BF5FEA500C50F1000041EB045141EA61
:10064000050130BD5FEA4C0C404141EB0101013C2A
:1006500028BFB1F5801FE9D291F0000F04BF014619
:100660000020B1FA81F308BF2033A3F10B03B3F1EB
:1006700020020CDA0C3208DD02F1140CC2F10C027B
:1006800001FA0CF021FA02F10CE002F11402D8BFD9
:10069000C2F1200C01FA02F120FA0CFCDCBF41EAA5
:1006A0000C019040E41AA2BF01EB0451294330BD74
:1006B0006FEA04041F3C1CDA0C340EDC04F1140451
:1006C000C4F1200220FA04F001FA02F340EA030028
:1006D00021FA04F345EA030130BDC4F10C04C4F16E
:1006E000200220FA02F001FA04F340EA030029464E
:1006F00030BD21FA04F0294630BD94F0000F83F498
:10070000801306BF81F480110134013D4EE77FEA7A
:10071000645C18BF7FEA655C29D094EA050F08BFC6
:1007200090EA020F05D054EA000C04BF19461046A7
:1007300030BD91EA030F1EBF0021002030BD5FEAEB
:10074000545C05D14000494128BF41F0004130BD13
:1007500014F580043CBF01F5801130BD01F0004567
:1007600045F0FE4141F470014FF0000030BD7FEADA
:10077000645C1ABF194610467FEA655C1CBF0B46D5
:10078000024650EA013406BF52EA033591EA030FEC
:1007900041F4002130BD00BF90F0000F04BF0021E4
:1007A000704730B54FF4806404F132044FF0000517
:1007B0004FF0000150E700BF90F0000F04BF002190
:1007C000704730B54FF4806404F1320410F00045F6
:1007D00048BF40424FF000013EE700BF42004FEAF1
:1007E000E2014FEA31014FEA02701FBF12F07F436E
:1007F00093F07F4F81F06051704732F07F4208BF25
:10080000704793F07F4F04BF41F40021704730B52B
:100810004FF4607401F0004521F000411CE700BF77
:1008200050EA010208BF704730B54FF000050AE0FA
:1008300050EA010208BF704730B511F0004502D5FB
:10084000404261EB41014FF4806404F132045FEAFD
:10085000915C3FF4D8AE4FF003025FEADC0C18BFA6
:1008600003325FEADC0C18BF033202EBDC02C2F198
:10087000200300FA03FC20FA02F001FA03FE40EA2A
:100880000E0021FA02F11444BDE600BF4FEA410216
:10089000B2F1E04324BFB3F5001CDCF1FE5C0DD9DE
:1008A00001F0004C4FEAC0024CEA5070B2F1004F28
:1008B00040EB830008BF20F00100704711F0804F2B
:1008C00021D113F13872BCBF01F00040704741F4F0
:1008D00080114FEA5252C2F11802C2F1200C10FAF4
:1008E0000CF320FA02F018BF40F001004FEAC123D8
:1008F0004FEAD32303FA0CFC40EA0C0023FA02F37C
:100900004FEA4303CCE77FEA625307D150EA013351
:100910001EBF4FF0FE4040F44000704701F0004021
:1009200040F0FE4040F40000704700BF53B94AB9A0
:10093000002908BF00281CBF4FF0FF314FF0FF30E7
:1009400000F074B9ADF1080C6DE904CE00F006F8C2
:10095000DDF804E0DDE9022304B070472DE9F0473B
:10096000089D04468E46002B4DD18A42944669D993
:10097000B2FA82F252B101FA02F3C2F1200120FA76
:1009800001F10CFA02FC41EA030E94404FEA1C48C4
:10099000210CBEFBF8F61FFA8CF708FB16E341EAC0
:1009A000034306FB07F199420AD91CEB030306F146
:1009B000FF3080F01F81994240F21C81023E634467
:1009C0005B1AA4B2B3FBF8F008FB103344EA03440B
:1009D00000FB07F7A7420AD91CEB040400F1FF3320
:1009E00080F00A81A74240F207816444023840EA5D
:1009F0000640E41B00261DB1D4400023C5E9004396
:100A00003146BDE8F0878B4209D9002D00F0EF8018
:100A10000026C5E9000130463146BDE8F087B3FA4B
:100A200083F6002E4AD18B4202D3824200F2F98033
:100A3000841A61EB030301209E46002DE0D0C5E936
:100A4000004EDDE702B9FFDEB2FA82F2002A40F082
:100A50009280A1EB0C014FEA1C471FFA8CFE012685
:100A6000200CB1FBF7F307FB131140EA01410EFB29
:100A700003F0884208D91CEB010103F1FF3802D2D0
:100A8000884200F2CB804346091AA4B2B1FBF7F0CA
:100A900007FB101144EA01440EFB00FEA64508D9ED
:100AA0001CEB040400F1FF3102D2A64500F2BB802A
:100AB0000846A4EB0E0440EA03409CE7C6F1200779
:100AC000B34022FA07FC4CEA030C20FA07F401FABF
:100AD00006F31C43F9404FEA1C4900FA06F3B1FB48
:100AE000F9F8200C1FFA8CFE09FB181140EA0141AD
:100AF00008FB0EF0884202FA06F20BD91CEB01014A
:100B000008F1FF3A80F08880884240F28580A8F1A1
:100B100002086144091AA4B2B1FBF9F009FB1011F3
:100B200044EA014100FB0EFE8E4508D91CEB010191
:100B300000F1FF346CD28E456AD90238614440EA34
:100B40000840A0FB0294A1EB0E01A142C846A646B4
:100B500056D353D05DB1B3EB080261EB0E0101FA3D
:100B600007F722FA06F3F1401F43C5E9007100269A
:100B70003146BDE8F087C2F12003D8400CFA02FCF0
:100B800021FA03F3914001434FEA1C471FFA8CFE00
:100B9000B3FBF7F007FB10360B0C43EA064300FBF0
:100BA0000EF69E4204FA02F408D91CEB030300F18E
:100BB000FF382FD29E422DD9023863449B1B89B245
:100BC000B3FBF7F607FB163341EA034106FB0EF3CE
:100BD0008B4208D91CEB010106F1FF3816D28B427B
:100BE00014D9023E6144C91A46EA004638E72E4647
:100BF000284605E70646E3E61846F8E64B45A9D23F
:100C0000B9EB020864EB0C0E0138A3E74646EAE7AD
:100C1000204694E74046D1E7D0467BE7023B61445B
:100C200032E7304609E76444023842E7704700BFC4
:100C300038B5054601F0FEFB044601F0FBFB001B46
:100C4000A842FAD338BD000010B58CB00590134B04
:100C500006930123ADF81C30114B08930823ADF81F
:100C60002430104B0A930423ADF82C300CAB13E95D
:100C700007008DE8070005AB0FCB03F04AF80446E8
:100C800040B100231A46042103F07AF806212046D9
:100C900003F03BF820460CB010BD00BF0008024036
:100CA000000002400014024038B504460D4602F030
:100CB0005DFF00284BD001228021274801F01DFB59
:100CC000204602F053FF0028FAD00022802122485B
:100CD00001F013FB03220E21204602F06FFF236A6E
:100CE0001BBA43F3170307EE903AF8EEE77AC5ED27
:100CF000007A03220F21204602F060FF236A1BBA0C
:100D000043F3170307EE903AF8EEE77AC5ED017A60
:100D100003221021204602F051FF236A1BBA43F33D
:100D2000170307EE903AF8EEE77AC5ED027A032250
:100D30001121204602F042FF236A1BBA43F3170336
:100D400007EE903AF8EEE77AC5ED037A38BD204613
:100D500002F08AFFAFE700BF000402402DE9F04334
:100D60009FB0804600241CE04FEA840908EB84030E
:100D70001868FFF733FD06460F46214D4D4428689D
:100D8000FFF72CFD00220023FFF79AFA02460B46DC
:100D900030463946FFF7C4FBFFF778FD2860013481
:100DA000E4B2032CE0D901F045FB0246144B93ED6D
:100DB000006AD3ED017A93ED027AD3ED036AFDEE7A
:100DC000E66ACDED026ABDEEC77A8DED017AFDEEE1
:100DD000E77ACDED007AFDEEC67A17EE903A094932
:100DE00005A803F061FB05A8FFF712FA0A2382B2F7
:100DF00005A9054802F009FB1FB0BDE8F08300BF5C
:100E00008C000020C44B00080001002000B585B014
:100E1000044669462046FFF747FF204602F024FFBC
:100E20006846FFF79BFF0520FFF702FFF1E772B668
:100E3000FEE7000000B595B03022002108A803F0BD
:100E40003BFA00230393049305930693079301F061
:100E50006DFA224B1A6C42F080521A641B6C03F03C
:100E600080530193019B1E4B1A6842F440421A6062
:100E70001B6803F440430293029B012308934FF441
:100E8000A023099302230E934FF480020F920422B1
:100E90001092D822119212930923139308A800F0FC
:100EA000F3FAA0B901F04AFA98B90F230393022389
:100EB0000493002305934FF4A0530693079307214F
:100EC00003A800F065FD30B915B05DF804FBFFF72D
:100ED000AEFFFFF7ACFFFFF7AAFF00BF00380240EC
:100EE0000070004008B501F08DFAFFF7A3FF00F095
:100EF00011F800F0F9F800F05BF900F0BBF902F02E
:100F0000BFFD0348FFF7A0FEFFF780FFFEE700BF2D
:100F10009C0000202DE9F04F8DB000240794089428
:100F200009940A940B946A4B1A6B42F004021A63F8
:100F30001A6B02F004020092009A1A6B42F020022F
:100F40001A631A6B02F020020192019A1A6B42F0A6
:100F500080021A631A6B02F080020292029A1A6BE4
:100F600042F001021A631A6B02F001020392039A23
:100F70001A6B42F002021A631A6B02F00202049228
:100F8000049A1A6B42F008021A631A6B02F0080204
:100F90000592059A1A6B42F040021A631B6B03F02C
:100FA00040030693069BDFF838A1224601215046F4
:100FB00001F0A3F9DFF82CB122460821584601F0D0
:100FC0009CF9224644F28101424801F096F9424FD1
:100FD00022464021384601F090F94FF40053079320
:100FE0004FF488130893099407A9504601F082F83A
:100FF000042307930894099407A9384801F07AF864
:10100000012607960896099402250A9507A95046D5
:1010100001F070F832230793089509944FF0030903
:10102000CDF828904FF00B08CDF82C8007A950463A
:1010300001F060F88623079308950994CDF828906D
:10104000CDF82C8007A9584601F054F808230793DF
:10105000089609940A9407A9584601F04BF844F2FF
:1010600081030793089609940A9407A9194801F087
:1010700041F84FF40053079308950994CDF8289050
:10108000CDF82C8007A9134801F034F840230793CA
:10109000089609940A9407A9384601F02BF8802392
:1010A00007930894099407A9384601F023F84FF4F0
:1010B0002053079308950994CDF82890CDF82C80FB
:1010C00007A9384601F016F80DB0BDE8F08F00BF53
:1010D00000380240000402400018024000140240A0
:1010E000000802400000024008B51048104B0360A1
:1010F0004FF482734360002383604FF4E062C26068
:10110000036143614FF4007282611022C261036285
:10111000436283620722C26203630823436301F0D0
:101120008FFB00B908BDFFF782FEFBE79C000020A3
:101130000050014000B589B0002303930493059348
:10114000069307930268184B9A4202D009B05DF8E3
:1011500004FB03F568435A6C42F480125A645A6CDB
:1011600002F480120192019A1A6B42F020021A6373
:101170001B6B03F020030293029B4FF460730393F5
:1011800002230493032306930523079303A9074827
:1011900000F0B0FF00221146552000F01DF9552047
:1011A00000F050F9D2E700BF0050014000140240A7
:1011B00008B50B480B4B03604FF4E1334360002349
:1011C0008360C36003610C2242618361C361036277
:1011D000436202F09EF900B908BDFFF728FEFBE765
:1011E000000100200048004010B5A8B004460021CE
:1011F00023912491259126912791842202A803F01E
:101200005BF82268184B9A4201D028B010BD4FF409
:101210008073029302A800F097FC10BB134B1A6C6A
:1012200042F480221A641A6C02F480220092009A1E
:101230001A6B42F008021A631B6B03F00803019358
:10124000019B4FF44073239302232493002325939F
:10125000032326930723279323A9054800F04AFF79
:10126000D3E7FFF7E4FDD9E700480040003802402B
:10127000000C024008B50C484FF0A0430360062361
:1012800043600222C2600023036182610122C261C5
:1012900003624362C262036302F06CF900B908BDE5
:1012A000FFF7C5FDFBE700BF8801002070B5AAB0BD
:1012B0000446002125912691279128912991842285
:1012C00004A802F0F9FF2368B3F1A04F01D02AB0BF
:1012D00070BD4FF40013049304A800F035FC0028FF
:1012E00035D11C4C236B43F001032363236B03F0C4
:1012F00001030193019B4FF4E853259302232693A6
:1013000000252795032328930A232993124E25A904
:10131000304600F0EFFE4FF4007325932695279595
:1013200025A9304600F0E6FE636B43F0800363635B
:10133000636B03F080030293029B636C43F480436E
:101340006364636C03F480430393039BBFE7FFF77D
:101350006EFDC6E70038024000000240FEE7FEE7EF
:10136000FEE7FEE7FEE770477047704708B501F0FB
:1013700055F808BD08B5024801F042FD08BD00BFA0
:101380009C00002082B00A4B1A6C42F080521A6412
:101390001A6C02F080520092009A5A6C42F4804219
:1013A0005A645B6C03F480430193019B02B0704765
:1013B000003802400649CB6823F4E0631B041B0C91
:1013C000000200F4E0600343024A1A43CA60704717
:1013D00000ED00E00000FA0500B5174BDB68C3F331
:1013E0000223C3F1070CBCF1040F28BF4FF0040C1B
:1013F00003F1040EBEF1060F14D9033B4FF0FF3E7C
:101400000EFA0CFC21EA0C0199400EFA03F322EAD1
:1014100003031943002807DB0901C9B2074B19541C
:101420005DF804FB0023E9E700F00F000901C9B2F1
:10143000034B1954F4E700BF00ED00E000E400E0C6
:1014400014ED00E0002807DB00F01F024009012333
:101450009340024A42F82030704700BF00E100E0AC
:101460000138B0F1807F0BD24FF0E0235861054A7C
:10147000F02182F823100020986107221A6170473A
:101480000120704700ED00E0002800F0FF8170B5FA
:1014900082B00446036813F0010F29D0954B9B6876
:1014A00003F00C03042B1AD0924B9B6803F00C033F
:1014B000082B0FD06368B3F5803F40D0002B54D188
:1014C0008C4B1A6822F480321A601A6822F4802247
:1014D0001A6039E0874B5B6813F4800FEAD0854BC4
:1014E0001B6813F4003F03D06368002B00F0D08129
:1014F000236813F0020F74D07E4B9B6813F00C0F1F
:101500005ED07C4B9B6803F00C03082B53D0E36840
:10151000002B00F08980774A136843F001031360C1
:1015200000F088FF0546734B1B6813F0020F72D161
:1015300000F080FF401B0228F5D90320ADE16D4A81
:10154000136843F48033136063682BB300F072FFB9
:101550000546684B1B6813F4003FC9D100F06AFFD1
:10156000401B6428F5D9032097E1B3F5A02F09D0DB
:10157000604B1A6822F480321A601A6822F48022C2
:101580001A60E1E75B4B1A6842F480221A601A681D
:1015900042F480321A60D7E700F04CFF0546554B05
:1015A0001B6813F4003FA3D000F044FF401B6428E5
:1015B000F5D9032071E14F4B5B6813F4800FA6D17E
:1015C0004C4B1B6813F0020F03D0E368012B40F073
:1015D0006181484A136823F0F803216943EAC10393
:1015E0001360236813F0080F46D0636983B3414A40
:1015F000536F43F00103536700F01CFF05463D4B5A
:101600005B6F13F0020F37D100F014FF401B02286C
:10161000F5D9032041E1374A136823F0F803216923
:1016200043EAC1031360DCE7324A136823F0010385
:10163000136000F0FFFE05462E4B1B6813F0020FEF
:10164000CFD000F0F7FE401B0228F5D9032024E19B
:10165000284A536F23F00103536700F0EBFE054661
:10166000244B5B6F13F0020F06D000F0E3FE401B2B
:101670000228F5D9032010E1236813F0040F7DD070
:101680001C4B1B6C13F0805F1ED11A4B1A6C42F07E
:1016900080521A641B6C03F080530193019B012557
:1016A000154B1B6813F4807F10D0A368012B25D045
:1016B000002B3BD10F4B1A6F22F001021A671A6FF1
:1016C00022F004021A671EE00025E9E70A4A1368BF
:1016D00043F48073136000F0ADFE0646064B1B68B2
:1016E00013F4807FE1D100F0A5FE801B6428F5D9BA
:1016F0000320D2E000380240007000406E4A136FB1
:1017000043F001031367A36833B300F093FE06466A
:10171000694B1B6F13F0020F2FD100F08BFE801B63
:1017200041F288339842F3D90320B6E0052B09D063
:10173000614B1A6F22F001021A671A6F22F004023D
:101740001A67E0E75C4B1A6F42F004021A671A6FDF
:1017500042F001021A67D6E700F06CFE0646564BCF
:101760001B6F13F0020F08D000F064FE801B41F2E3
:1017700088339842F3D903208FE0FDB9A369002B89
:1017800000F08A804C4A926802F00C02082A58D075
:10179000022B19D0484A136823F08073136000F0BD
:1017A00049FE0446444B1B6813F0007F47D000F00D
:1017B00041FE001B0228F5D903206EE03E4A136C5F
:1017C00023F080531364D9E73B4A136823F08073F6
:1017D000136000F02FFE0546374B1B6813F0007FA7
:1017E00006D000F027FE401B0228F5D9032054E064
:1017F000E369226A1343626A43EA8213A26A5208C7
:10180000013A43EA0243E26A43EA026343F00053C7
:10181000294A5360136843F08073136000F00AFE96
:101820000446254B1B6813F0007F06D100F002FE32
:10183000001B0228F5D903202FE000202DE0002016
:101840002BE01D4A5268012B29D002F48003E16984
:101850008B4226D102F03F03216A8B4223D1616A79
:1018600047F6C0731340B3EB811F1ED102F4403121
:10187000A36A5B08013BB1EB034F18D102F0706221
:10188000E36AB2EB036F14D1002006E00120704739
:10189000012002E0012000E0002002B070BD012024
:1018A000FBE70120F9E70120F7E70120F5E7012038
:1018B000F3E70120F1E700BF0038024008B5314BE3
:1018C0009B6803F00C03042B57D0082B57D12D4BEA
:1018D0005A6802F03F025B6813F4800F2AD0294B4C
:1018E0005968C1F3881C4FEA4C11B1EB0C006EEB48
:1018F0000E0E4FEA8E1343EA90638101091A63EBDF
:101900000E03DB0043EA5173C90011EB0C0C43F1E9
:101910000003590200234FEA4C2041EADC51FFF753
:1019200005F8184B5B68C3F3014301335B00B0FB60
:10193000F3F025E0134B5968C1F3881C4FEA4C11B2
:10194000B1EB0C006EEB0E0E4FEA8E1343EA906380
:101950008101091A63EB0E03DB0043EA5173C900EE
:1019600011EB0C0C43F10003990200234FEA8C2089
:1019700041EA9C51FEF7DAFFD3E7034800E0034851
:1019800008BD00BF0038024000127A000024F400B5
:10199000002800F0A08070B50D460446524B1B682D
:1019A00003F00F038B420BD24F4A136823F00F034F
:1019B0000B431360136803F00F038B4240F08D80DC
:1019C000236813F0020F17D013F0040F04D0474A16
:1019D000936843F4E0539360236813F0080F04D036
:1019E000424A936843F460439360404A936823F00B
:1019F000F003A1680B439360236813F0010F31D00B
:101A00006368012B20D0022B25D0384A126812F0CF
:101A1000020F64D035498A6822F0030213438B60B9
:101A200000F008FD0646314B9B6803F00C0362682A
:101A3000B3EB820F16D000F0FDFC801B41F288331F
:101A40009842F0D9032045E0284A126812F4003F7A
:101A5000E0D101203EE0254A126812F0007FD9D182
:101A6000012037E0204B1B6803F00F03AB420AD97B
:101A70001D4A136823F00F032B431360136803F010
:101A80000F03AB422DD1236813F0040F06D0174A81
:101A9000936823F4E053E1680B439360236813F0E9
:101AA000080F07D0114A936823F46043216943EA81
:101AB000C1039360FFF702FF0C4B9B68C3F3031352
:101AC0000B4AD35CD8400B4B18600B4B186800F0E6
:101AD00073FC002070BD012070470120FAE701204F
:101AE000F8E70120F6E700BF003C02400038024062
:101AF000D44B00080800002004000020014B1868A7
:101B0000704700BF0800002008B5FFF7F7FF044B3F
:101B10009B68C3F38223034AD35CD84008BD00BF4F
:101B200000380240E44B000808B5FFF7E7FF044B1C
:101B30009B68C3F34233034AD35CD84008BD00BF5F
:101B400000380240E44B0008F0B583B00446066854
:101B500016F001060DD0A74B9A6822F400029A6095
:101B60009A68416B0A439A60436B002B00F03981FD
:101B70000026256815F4002511D09E4AD2F88C3035
:101B800023F44013E16B0B43C2F88C30E36BB3F5E5
:101B9000801F00F02881002B00F02781002523689A
:101BA00013F4801F0FD0934AD2F88C3023F44003F3
:101BB000216C0B43C2F88C30236CB3F5800F00F01E
:101BC000168103B90125236813F0807F00D0012618
:101BD00013F0200F40F01081236813F0100F0CD089
:101BE000844BD3F88C2022F08072C3F88C20D3F879
:101BF0008C20A16B0A43C3F88C20236813F4804F18
:101C000008D07C4AD2F8903023F44033616E0B4305
:101C1000C2F89030236813F4004F08D0754AD2F808
:101C2000903023F44023A16E0B43C2F89030236818
:101C300013F4803F08D06F4AD2F8903023F4401359
:101C4000E16E0B43C2F89030236813F4003F08D0D4
:101C5000684AD2F8903023F44003216F0B43C2F856
:101C60009030236813F0400F08D0624AD2F89030C9
:101C700023F00303616C0B43C2F89030236813F028
:101C8000800F08D05B4AD2F8903023F00C03A16C8F
:101C90000B43C2F89030236813F4807F08D0554A74
:101CA000D2F8903023F03003E16C0B43C2F890304F
:101CB000236813F4007F08D04E4AD2F8903023F006
:101CC000C003216D0B43C2F89030236813F4806F7A
:101CD00008D0484AD2F8903023F44073616D0B432A
:101CE000C2F89030236813F4006F08D0414AD2F84C
:101CF000903023F44063A16D0B43C2F89030236809
:101D000013F4805F08D03B4AD2F8903023F440535C
:101D1000E16D0B43C2F89030236813F4005F08D0E4
:101D2000344AD2F8903023F44043216E0B43C2F87A
:101D30009030236813F4800F08D02E4AD2F89030E8
:101D400023F08063A16F0B43C2F89030236813F433
:101D5000001F0DD0274AD2F8903023F00063E16FC6
:101D60000B43C2F89030E36FB3F1006F00F0AA802C
:101D7000236813F0080F00D0012513F4802F08D03A
:101D80001C4AD2F8903023F04073616F0B43C2F8C5
:101D90009030236813F4000F09D0164AD2F890301F
:101DA00023F08053D4F880100B43C2F8903026B94A
:101DB000236813F0007F00F005810E4A136823F0BA
:101DC0008063136000F036FB06460A4B1B6813F075
:101DD000006F79D000F02EFB801B6428F5D903201A
:101DE000F3E00126C5E60126D5E60125D7E6012662
:101DF000E7E600BF003802407F4B1A6C42F0805289
:101E00001A641B6C03F080530193019B7B4A136897
:101E100043F48073136000F00DFB0746774B1B689B
:101E200013F4807F06D100F005FBC01B6428F5D9B0
:101E30000320CAE0704B1B6F13F4407315D0226B64
:101E400002F440729A4210D06B4B1A6F22F4407227
:101E5000196F41F480311967196F21F480311967C6
:101E60001A671B6F13F0010F12D1236B03F440723A
:101E7000B2F5407F1DD0604A936823F4F813936055
:101E80005D490B6F226BC2F30B0213430B67A3E692
:101E900000F0D0FA0746584B1B6F13F0020FE4D145
:101EA00000F0C8FAC01B41F288339842F3D90320EE
:101EB0008BE05148826822F4F812514919400A43D4
:101EC0008260DDE7012553E7236813F0010F13D08B
:101ED000636B8BB9484AD2F88430D2F884106068BA
:101EE00003F4403343EA801301F070610B43A168AF
:101EF00043EA0173C2F88430236813F4002F03D03F
:101F0000E26BB2F5801F06D013F4801F1ED0236C45
:101F1000B3F5800F1AD1384AD2F88430D2F8841041
:101F2000606803F4403343EA8013E06843EA0063E7
:101F300001F0E0410B43C2F88430D2F88C3023F03A
:101F40001F03616A01390B43C2F88C30236813F018
:101F5000807F11D0284AD2F88400D2F884106668B5
:101F600023691B0443EA861300F07060034301F009
:101F7000E0410B43C2F88430236813F0007F0DD09A
:101F8000626823691B0443EA8213E26843EA02633E
:101F9000A26843EA0273184AC2F88430164A1368EA
:101FA00043F08063136000F045FA0646124B1B684D
:101FB00013F0006F06D100F03DFA801B6428F5D9BC
:101FC000032002E0012D02D0002003B0F0BD0A4A38
:101FD000136823F08053136000F02CFA0546064B7B
:101FE0001B6813F0005F0DD000F024FA401B64283A
:101FF000F5D90320E9E700BF003802400070004037
:10200000FFFCFF0F236813F4002F01D0E26B22B115
:1020100013F4801F1DD0236CDBB9354AD2F8883009
:10202000D2F88810606903F4403343EA8013A06952
:1020300043EA006301F0E0410B43C2F88830D2F874
:102040008C3023F4F853A16A013943EA0123C2F822
:102050008C30236813F4001F03D0E36FB3F1006FDB
:1020600031D0236813F0080F19D0214AD2F8881014
:10207000D2F88830606903F4403343EA801301F0FA
:1020800070610B43E16943EA0173C2F88830D2F80A
:102090008C3023F44033E16A0B43C2F88C30144A8D
:1020A000136843F08053136000F0C4F90446104BEA
:1020B0001B6813F0005F19D100F0BCF9001B642805
:1020C000F5D9032081E70A4AD2F88800D2F88810AF
:1020D0006569236A1B0443EA851300F070600343BB
:1020E00001F0E0410B43C2F88830BAE700206CE70A
:1020F0000038024000230F2B00F2EF8070B582B051
:1021000061E085685E000324B44025EA0405CC68DC
:10211000B4402C438460456825EA02054C68C4F34A
:1021200000129A402A4342605BE0DC08083450F811
:10213000246003F0070295000F22AA4026EA020E4F
:102140000A69AA4042EA0E0240F824205DE0092212
:1021500000E0002202FA0EF22A4302345F4D45F8F5
:1021600024205F4A94686FEA0C0224EA0C054E684A
:1021700016F4801F01D04CEA0405594CA560E468B0
:1021800002EA04054E6816F4001F01D04CEA04056B
:10219000534CE560646802EA04054E6816F4003F9B
:1021A00001D04CEA04054E4C6560246822404D681D
:1021B00015F4803F01D04CEA0402494C22600133FF
:1021C0000F2B00F2888001229A400C6804EA020C6E
:1021D00032EA0404F3D14C6804F00304013C012CFE
:1021E0008FD94A6802F00302032A09D0C4685D004F
:1021F0000322AA4024EA02048A68AA402243C26059
:102200004A6802F00302022A8FD004684FEA430EA4
:10221000032202FA0EF224EA02044A6802F00302E0
:1022200002FA0EF2224302604A6812F4403FC6D01E
:102230002C4A546C44F480445464526C02F480423E
:102240000192019A9C08A51C244A52F8255003F0DB
:1022500003024FEA820E0F2202FA0EF225EA02056D
:10226000214A90423FF475AF02F58062904222D03D
:1022700002F58062904220D002F5806290421ED02A
:1022800002F5806290421CD002F5806290421AD022
:1022900002F58062904218D002F58062904216D01A
:1022A00002F58062904214D002F5806290423FF4C1
:1022B0004EAF0A224EE701224CE702224AE70322F0
:1022C00048E7042246E7052244E7062242E70722C0
:1022D00040E708223EE702B070BD70470038014079
:1022E000003C0140003802400000024003691942EE
:1022F00001D001207047002070470AB1816170470A
:1023000009048161704790F83530DBB2022B03D0AD
:102310008023436501207047052380F8353002682B
:10232000136823F00103136000207047024A13680A
:1023300043F48073136070470070004010B582B0A2
:102340001B4B1A6C42F080521A641B6C03F08053D2
:102350000193019B174A136843F48033136000F024
:1023600069F80446134B5B6813F4803F08D100F012
:1023700061F8001BB0F57A7FF4D9032002B010BDDC
:102380000C4A136843F40033136000F053F804461A
:10239000084B5B6813F4003F07D100F04BF8001BBB
:1023A000B0F57A7FF4D90320E8E70020E6E700BF24
:1023B000003802400070004010B504460E4B1878FB
:1023C0004FF47A73B3FBF0F30C4A1068B0FBF3F0F0
:1023D000FFF746F868B90F2C01D901200AE0002266
:1023E00021464FF0FF30FEF7F7FF054B1C60002041
:1023F00000E0012010BD00BF000000200800002008
:102400000400002008B50320FEF7D4FF0020FFF7EA
:10241000D3FFFEF7B7FF002008BD0000034A116894
:10242000034B1B780B441360704700BF90060020DD
:1024300000000020014B1868704700BF9006002084
:1024400038B50446FFF7F6FF0546B4F1FF3F02D06A
:10245000044B1B781C44FFF7EDFF401BA042FAD34E
:1024600038BD00BF00000020002857D010B504463A
:1024700090F84130002B41D0242384F84130226869
:10248000136823F0010313606368226823F070630C
:1024900013612268936823F400439360E368012B7F
:1024A00031D0A368226843F404439360E368022BAD
:1024B0002FD0226851681A4B0B4353602268D368AF
:1024C00023F40043D360236962691343A16922683E
:1024D00043EA0123D360E369216A22680B43136056
:1024E0002268136843F00103136000206064202316
:1024F00084F84130206384F8420010BD80F84030F9
:1025000001F0EAFAB8E7A368226843F40043936055
:10251000CCE723684FF400625A60CAE70120704795
:102520000080000290F84130DBB2202B24D190F8DB
:102530004030012B22D0012380F84030242380F842
:1025400041300268136823F00103136002681368C6
:1025500023F4805313600268136819431160026802
:10256000136843F001031360202380F841300023F7
:1025700080F84030184670470220704702207047AC
:1025800090F84130DBB2202B22D190F84030012B63
:1025900020D0012380F84030242380F841300268A5
:1025A000136823F0010313600268136823F4706357
:1025B00043EA012111600268136843F001031360CC
:1025C000202380F84130002380F8403018467047BF
:1025D00002207047022070472DE9F04782B005467F
:1025E000884617461E46FFF725FF0A9B1B1A03EB7A
:1025F0000609FFF71FFF82462B4B1B68C3F3CB3343
:1026000009FB03F301932B689C6838EA04030CBFB1
:102610004FF0010C4FF0000CBC4540D0B6F1FF3F2D
:10262000F1D0FFF707FFA0EB0A0048450AD2B9F145
:10263000000F07D0019A02B14A46019B013B01936A
:102640009146E0E72A68536823F0E00353606B6823
:10265000B3F5827F0BD0AB6AB3F5005F14D00123D2
:1026600085F85D30002385F85C30032018E0AB6806
:10267000B3F5806F18BFB3F5004FECD12A6813682B
:1026800023F040031360E6E72A68136823F400533D
:1026900013602A68136843F400531360DFE70020D7
:1026A00002B0BDE8F08700BF080000202DE9F04728
:1026B00082B006460D4614461F4600238DF80330AF
:1026C000FFF7B8FE0A9B1B1A03EB0709FFF7B2FEE0
:1026D0008246D6F80080314B1B6803EB8303C3EBC3
:1026E000C3031B0D09FB03F3019302E0B7F1FF3FA6
:1026F00012D133689B6803EA050CA4454AD0B5F5AE
:10270000C06F08BF002CF1D198F80C30DBB28DF807
:1027100003309DF80330E9E7FFF78CFEA0EB0A00D9
:1027200048450AD2B9F1000F07D0019A02B14A46D2
:10273000019B013B01939146DBE73268536823F02C
:10274000E00353607368B3F5827F0BD0B36AB3F5CF
:10275000005F14D0012386F85D30002386F85C30DA
:10276000032018E0B368B3F5806F18BFB3F5004FCE
:10277000ECD13268136823F040031360E6E7326857
:10278000136823F4005313603268136843F4005352
:102790001360DFE7002002B0BDE8F08708000020EA
:1027A00070B584B004460D46164600920B460022D2
:1027B0004FF4C051FFF77AFF18BB1F4B1B681F4A2D
:1027C000A2FB03235B0D4FF47A7202FB03F3039326
:1027D0006368B3F5827F1AD0039B3BB1039B013B37
:1027E000039323689B6813F0800FF5D100962B4666
:1027F00000224FF4C0612046FFF758FFB0B904B083
:1028000070BD236E43F0200323660320F7E7009694
:102810002B46002280212046FFF7DEFE0028E5D06F
:10282000236E43F0200323660320E8E7236E43F082
:10283000200323660320E2E708000020819F5E1644
:1028400000286FD010B50446436A33B94368B3F526
:10285000827F05D00023C36102E00023036143614E
:102860000023A36294F85D30002B52D0022384F839
:102870005D302268136823F040031360E368B3F50A
:10288000E06F4CD90022B3F5706F18BFB3F5E06F5D
:1028900001D00023A362636803F48273A16801F48A
:1028A00004410B43216901F002010B43616901F00E
:1028B00001010B43A16901F400710B43E16901F0CF
:1028C00038010B43216A01F080010B43A16A01F436
:1028D000005120680B430360638B03F00403616ABB
:1028E00001F010010B43616B01F008010B43E1683B
:1028F00001F470610B43216813434B602268D36974
:1029000023F40063D36100202066012384F85D3046
:1029100010BD84F85C302046FEF70CFCA6E74FF4AF
:102920008052B0E7012070472DE9F04383B01D4687
:1029300090F85C30012B00F0F58004468946904603
:10294000012380F85C30FFF775FD074694F85D6061
:10295000F6B2012E40F0D380B8F1000F18BFB9F1E4
:10296000000F00F0CD80032384F85D300023236640
:10297000C4F83890A4F83C80A4F83E802364A4F8FE
:102980004430A4F846302365E364A368B3F5004FF0
:102990001ED023681A6812F0400F03D11A6842F063
:1029A00040021A60E368B3F5E06F42D9636813B17F
:1029B000B8F1010F23D1A26B23681288DA60A36BF0
:1029C0000233A363E38F9BB2013B9BB2E38716E024
:1029D0002268136823F0400313602268136843F4ED
:1029E00080431360D5E7FFF725FDC01BA84203D342
:1029F000B5F1FF3F40F08E80002D00F08D80E38F19
:102A00009BB2002B66D023689A6812F0020FEAD0BE
:102A1000A26B1288DA60A36B0233A363B4F83EC0E2
:102A20001FFA8CFC0CF1FF3C1FFA8CFCA4F83EC092
:102A3000E5E7636813B1B8F1010F33D1E38F9BB2BF
:102A4000012B0CD9A26B23681288DA60A36B0233C6
:102A5000A363E38F9BB2023B9BB2E38722E0A26BAE
:102A6000236812781A73A36B0133A363E38F9BB2BD
:102A7000013B9BB2E38715E0A36B1B781373A36B39
:102A80000133A363E38F9BB2013B9BB2E38709E071
:102A9000FFF7D0FCC01BA84202D3B5F1FF3F3DD1E8
:102AA000002D3DD0E38F9BB2A3B12268936813F051
:102AB000020FEDD0E38F9BB2012BDDD9A36B1B88F6
:102AC000D360A36B0233A363E38F9BB2023B9BB241
:102AD000E387E7E73A4629462046FFF761FE08B15B
:102AE00020232366A36833B901932368DA6801922F
:102AF0009B680193019B236E13B9002600E0022618
:102B0000012384F85D30002384F85C30304603B044
:102B1000BDE8F0830326F3E70326F1E70326EFE79A
:102B20000326EDE70226F1E72DE9F8431F46089D4D
:102B300090F85C30012B00F0618104468846914694
:102B4000012380F85C30FFF775FC064694F85D3091
:102B5000DBB26268012B0AD0B2F5827F40F0378188
:102B6000A268002A40F03C81042B40F03B81B9F17F
:102B7000000F18BFB8F1000F00F03681002F00F0F1
:102B8000358194F85D30DBB2042B02D0052384F844
:102B90005D3000232366C4F84090A4F84670A4F882
:102BA0004470C4F83880E787A787E3642365E36847
:102BB000B3F5E06F01D8012F23D92268536823F4BD
:102BC0008053536023681A6812F0400F03D11A68CB
:102BD00042F040021A60E368B3F5E06F58D96368C9
:102BE0000BB1012F0BD1A26B23681288DA60A36BA3
:102BF0000233A363E38F9BB2013B9BB2E3870127C0
:102C000031E02268536843F480535360DAE7A26BE3
:102C10001288DA60A36B0233A363E38F9BB2013B9C
:102C20009BB2E387002723689A6812F0010F11D046
:102C3000B4F8462092B26AB1DA68236C1A80236C29
:102C400002332364B4F846309BB2013B9BB2A4F834
:102C500046300127FFF7EEFB831BAB4203D3B5F1F0
:102C6000FF3F40F0C580E38F9BB22BB9B4F84630EC
:102C70009BB2002B00F0A18023689A6812F0020F2B
:102C8000D1D0E28F92B2002ACDD0002FCBD0BEE7B8
:102C900063680BB1012F0FD1E38F9BB2012B0DD9CC
:102CA000A26B23681288DA60A36B0233A363E38FFD
:102CB0009BB2023B9BB2E387012749E0A26B2368EA
:102CC00012781A73A36B0133A363E38F9BB2013BAA
:102CD0009BB2E387F0E7E28F92B2012A0CD9A26B94
:102CE0001288DA60A36B0233A363E38F9BB2023BCB
:102CF0009BB2E38700273DE0A26B12781A73A36BA7
:102D00000133A363E38F9BB2013B9BB2E3870027B0
:102D100030E02268536843F48053536001270DE08C
:102D2000226C1B7B1370236C01332364B4F8463090
:102D30009BB2013B9BB2A4F846300127FFF77AFB18
:102D4000801BA84202D3B5F1FF3F53D1002D53D0D1
:102D5000E38F9BB223B9B4F846309BB2002B2CD042
:102D600023689A6812F0020F04D0E28F92B20AB17F
:102D7000002FB0D123689A6812F0010FDED0B4F8AA
:102D8000462092B2002AD9D0B4F8462092B2012A45
:102D9000C6D9DA68236C1A80236C02332364B4F832
:102DA00046309BB2023B9BB2A4F84630B4F84630A2
:102DB0009BB2012BADD90127C0E7324629462046F8
:102DC000FFF7EEFC20B120232366012000E0022063
:102DD000012384F85D30002384F85C30BDE8F8837B
:102DE0000220F5E70220F3E70120F1E70120EFE7F9
:102DF0000320EDE70320EBE70320E9E70220EDE7FE
:102E000030B585B00446026851689368C3F38010FA
:102E100013F0400F05D113F0010F02D011F0400F55
:102E200069D113F0020F02D011F0800F67D1C3F304
:102E3000401513F0200F03D110B913F4807F61D037
:102E400011F0200F5ED078B194F85D00C0B2032875
:102E50005AD0206E40F00400206600200090D06818
:102E6000009090680090009865B1206E40F00100DD
:102E700020660020029090680290106820F04000C8
:102E80001060029A13F4807F09D0236E43F0080388
:102E900023660023039323689B680393039B236E9D
:102EA000002B2FD02268536823F0E00353600123E6
:102EB00084F85D3011F0030F2ED02268536823F0A0
:102EC00003035360A36D4BB1154A1A65A06DFFF75C
:102ED0001AFA18B1236E43F040032366636D8BB179
:102EE0000F4A1A65606DFFF70EFA58B1236E43F072
:102EF0004003236606E0E36C2046984702E0236D1A
:102F00002046984705B030BD00230193D368019354
:102F100093680193019BF5E7204600F023FEF1E75B
:102F2000252F000808B5806B0023A0F84630C38722
:102F300000F018FE08BD000010B504468368026961
:102F4000134342691343C269134301680868934AF3
:102F5000024013430B602268536823F44053E16836
:102F60000B435360A269236A1A4321688B6823F4D8
:102F7000306313438B602368894A934219D0894A8E
:102F8000934229D0884A93423ED0884A934262D0E5
:102F9000874A934271D0874A934200F08380864AE1
:102FA000934200F09480854A934200F0A58010235C
:102FB0003AE0834BD3F8903003F00303032B09D896
:102FC000DFE803F00204AE0601232DE004232BE02A
:102FD000082329E0102327E0794BD3F8903003F041
:102FE0000C030C2B0ED8DFE803F0070D0D0D090DB7
:102FF0000D0D9D0D0D0D0B00002315E0042313E0B6
:10300000082311E010230FE06D4BD3F8903003F04C
:103010003003202B00F0888019D8002B00F0868028
:10302000102B40F085800423E069B0F5004F00F0DC
:10303000AB80082B00F20C81DFE813F0E800FB0006
:10304000E6000A01FE000A010A010A010101302B13
:1030500070D10823E8E75A4BD3F8903003F0C0034F
:10306000802B69D005D8002B68D0402B68D1042371
:10307000DAE7C02B66D10823D6E7514BD3F890305E
:1030800003F44073B3F5007F5ED006D8002B5DD00B
:10309000B3F5807F5CD10423C6E7B3F5407F59D1F7
:1030A0000823C1E7464BD3F8903003F44063B3F5EF
:1030B000006F51D006D8002B50D0B3F5806F4FD1A0
:1030C0000423B1E7B3F5406F4CD10823ACE73C4B88
:1030D000D3F8903003F44053B3F5005F44D006D8E2
:1030E000002B43D0B3F5805F42D104239CE7B3F5B6
:1030F000405F3FD1082397E7314BD3F8903003F47A
:103100004043B3F5004F37D005D8BBB3B3F5804F7C
:1031100036D1042388E7B3F5404F33D1082383E742
:10312000022381E702237FE702237DE700237BE779
:10313000102379E7102377E7022375E7002373E76D
:10314000102371E710236FE702236DE700236BE77D
:10315000102369E7102367E7022365E7012363E78C
:10316000102361E710235FE702235DE700235BE79D
:10317000102359E7102357E7022355E7002353E7AD
:10318000102351E710234FE7082B5BD8DFE803F04B
:103190001A343A5A375A5A5A1E0000BFF369FFEFE1
:1031A000001001400044004000480040004C004036
:1031B000005000400014014000780040007C0040B6
:1031C00000380240FEF7A0FC00283DD0626853089A
:1031D00003EB4000B0FBF2F0A0F110024FF6EF73EA
:1031E0009A4233D883B223F00F03C0F3420018434E
:1031F0002368D860002030E0FEF796FCE4E7FEF795
:103200005DFBE1E71748E1E7164802E0FEF77CFCCA
:1032100000B3636800EB5300B0FBF3F0A0F11002C1
:103220004FF6EF739A4217D8236880B2D860002017
:1032300013E0FEF779FCEBE7FEF740FBE8E74FF41D
:103240000040E6E7012008E0002006E0012004E05D
:10325000012002E0002000E001200023A366E366D5
:1032600010BD00BF0024F400436A13F0010F06D024
:103270000268536823F40033816A0B435360436A46
:1032800013F0020F06D00268536823F48033C16A3A
:103290000B435360436A13F0040F06D0026853686F
:1032A00023F48023016B0B435360436A13F0080F30
:1032B00006D00268536823F40043416B0B4353600C
:1032C000436A13F0100F06D00268936823F480530A
:1032D000816B0B439360436A13F0200F06D00268A2
:1032E000936823F40053C16B0B439360436A13F05C
:1032F000400F0AD00268536823F48013016C0B431B
:103300005360036CB3F5801F0BD0436A13F0800F3A
:1033100006D00268536823F40023816C0B4353608A
:1033200070470268536823F4C003416C0B43536039
:10333000EBE72DE9F84305460F4616469946DDF8BA
:1033400020802C68E46937EA04030CBF4FF0010CBD
:103350004FF0000CB44555D1B8F1FF3FF1D0FFF765
:1033600069F8A0EB090040452ED8B8F1000F2BD02A
:103370002B681A6812F0040FE3D0DA6912F4006FB8
:10338000DFD04FF400621A622A6852E8003F23F44B
:10339000D07342E800310029F6D12A6802F108030F
:1033A00053E8003F23F00103083242E800310029CE
:1033B000F3D12023EB67C5F88030C5F884300023B3
:1033C00085F8783003201EE02A6852E8003F23F495
:1033D000D07342E800310029F6D12A6802F10803CF
:1033E00053E8003F23F00103083242E8003100298E
:1033F000F3D12023EB67C5F88030002385F87830BF
:10340000032000E00020BDE8F8832DE9F04182B000
:103410001E46C36F202B4ED104460D469046002A0F
:1034200018BF002901D1012046E00023C0F88430F4
:103430002123C367FEF7FEFF0746A4F85080A4F8D7
:103440005280A368B3F5805F02D04FF0000811E00E
:10345000236913B34FF000080CE038F8023B2268F0
:10346000C3F308039362B4F8522092B2013A92B2C5
:10347000A4F85220B4F852309BB28BB100963B4670
:10348000002280212046FFF754FFC0B9002DE4D070
:1034900015F8012B23689A62E5E7A8460025E9E7BD
:1034A00000963B46002240212046FFF742FF40B9EC
:1034B0002023E36700E0022002B0BDE8F081032092
:1034C000FAE70320F8E710B582B004460023C0F8FD
:1034D0008430FEF7AFFF23681B6813F0080F0AD192
:1034E0002023E367C4F8803000202066606684F8FB
:1034F000780002B010BD6FF07E43009303460022B7
:103500004FF400112046FFF714FF0028E8D00320F5
:10351000EFE768B310B50446C36F03B32423E36732
:103520002268136823F0010313602046FFF704FDAF
:10353000012813D0636ABBB92268536823F490430F
:1035400053602268936823F02A039360226813680B
:1035500043F0010313602046FFF7B5FF10BD80F86C
:103560007830FDF741FED9E72046FFF77DFEE3E71F
:103570000120704770B58AB0002800F0978005469A
:10358000046890F8BD343BB3032385F8BD34E36B86
:1035900013F4807F01D100232B61286800F002F929
:1035A0002C4654F8106BEC460FCCACE80F000FCC57
:1035B000ACE80F0094E803008CE803002B1D0ECB51
:1035C000304600F0B1F8044658B1022385F8BD3406
:1035D000012420460AB070BD80F8BC34FDF766FEB9
:1035E000D2E70021286800F00FFA234616E003EB2B
:1035F000C30205EB8202012182F83D1082F83C30C3
:10360000A2F84430002182F840109164D16403EBA9
:10361000C30205EB820251650133DBB269688B425C
:10362000E5D316E004EBC40305EB8303002283F823
:103630007D2283F87C4283F88022C3F88822C3F875
:103640008C2204EBC40305EB8303C3F894220134FA
:10365000E4B2A142E6D82C4654F8106BEC460FCCED
:10366000ACE80F000FCCACE80F0094E803008CE846
:1036700003002B1D0ECB304600F0F0F8044660B975
:10368000002385F83830012385F8BD346B6A012B9F
:1036900008D0286800F0A6F99BE7022385F8BD341E
:1036A000012496E7284600F003F8F2E7012490E7AA
:1036B000034602680121C0F80015002083F8F404D5
:1036C000936943F000639361516D024B0B43536563
:1036D000704700BF0300001082B000230193019BDC
:1036E00001330193019A0F4B9A4215D80369002BBD
:1036F000F5DA00230193036943F001030361019BA1
:1037000001330193019A074B9A4208D8036913F0D9
:10371000010FF4D1002000E0032002B07047032025
:10372000FBE700BF400D030084B010B5044603A8BA
:1037300080E80E00089B012B1DD1A36B23F480337E
:10374000A363E268164B1340E360E36823F440137D
:10375000E3600F9B012B09D02046FFF7BDFF069BBE
:10376000012B14D0BDE8104004B07047E36843F467
:103770008013E360F0E7E36843F04003E360204632
:10378000FFF7AAFFA36B43F48033A363E7E7A368C3
:1037900043F00603A360A36843F02003A360E1E7BE
:1037A000BFFFBDFF836823F00103836000207047E3
:1037B00082B000230193019B01330193019A0F4BC7
:1037C0009A4215D80369002BF5DA00230193890189
:1037D00041F020010161019B01330193019A074BE4
:1037E0009A4208D8036913F0200FF4D1002000E0BA
:1037F000032002B070470320FBE700BF400D030029
:1038000082B000230193019B01330193019A0E4B77
:103810009A4213D80369002BF5DA00230193102391
:103820000361019B01330193019A074B9A4208D827
:10383000036913F0100FF4D1002000E0032002B060
:1038400070470320FBE700BF400D0300D0F80038AD
:103850001943C0F8001800207047000084B02DE91B
:10386000F041044607A880E80E00002306E003F1BB
:10387000400204EB82020021516001330E2BF6D985
:10388000119F27BBD4F8043843F00203C4F804386E
:10389000A36B23F40013A363236843F04003236066
:1038A000236843F0800323600023C4F8003E04F53E
:1038B0000065D4F80038C4F800380C9B012B10D1F7
:1038C000099B4BB900212046FFF7C0FF0DE0A36B19
:1038D00043F40013A363E7E701212046FFF7B6FF97
:1038E00003E003212046FFF7B1FF10212046FFF738
:1038F0005FFF804608B14FF001082046FFF780FFC8
:1039000008B14FF0010800232B616B61EB610AE005
:10391000C3B94FF00060C2F8000900220A614FF6F7
:103920007F328A6001330799994210D904EB431220
:1039300002F51061D2F800090028E9DB0020C2F886
:103940000009EAE74FF09040C2F80009E5E70023DC
:103950000AE0C3B14FF0904CC2F800CB00220261E4
:103960004FF67F3282600133994211D904EB431242
:1039700002F53060D2F8006B002EEADB4FF0000C4D
:10398000C2F800CBEAE74FF0006CC2F800CBE5E7E5
:103990002B6923F480732B610023A3616FF08043B4
:1039A00063610A9B1BB9A36943F01003A361A26979
:1039B0000A4B1343A3610D9B1BB1A36943F008039A
:1039C000A361012F04D04046BDE8F04104B0704728
:1039D000A269034B1343A361F5E700BF00383C80A5
:1039E00004000040D0F8003E23F00303C0F8003E7E
:1039F000D0F8043843F00203C0F8043800207047C0
:103A0000406900F00100704738B50546C36823F0EF
:103A1000C043C360012913D019BBC36843F080437E
:103A2000C36000240120FEF70BFD01342846FFF798
:103A3000E7FF08B1312CF5D9322C14D0002038BD65
:103A4000C36843F00053C36000240120FEF7F8FC74
:103A500001342846FFF7D4FF0128EDD0312CF4D9EA
:103A6000EAE70120EBE70120E9E70000034AD2F88A
:103A7000883043F47003C2F88830704700ED00E0EE
:103A800008B51248124B0360124B43600023836059
:103A90000122C260036143618361C3610362FEF777
:103AA000E3FC50B900210948FEF73CFD40B9002174
:103AB0000648FEF765FD30B908BDFDF7B8F9F1E736
:103AC000FDF7B5F9F3E7FDF7B2F9F5E79406002045
:103AD000005400400D03006010B5A8B0044600215A
:103AE00023912491259126912791842202A800F008
:103AF000E3FB2268184B9A4201D028B010BD4FF466
:103B00008043029302A8FEF71FF810BB134C236BEF
:103B100043F002032363236B03F002030093009B33
:103B20004FF410732393122324930023259303232C
:103B300026930423279323A90948FEF7DBFA236C75
:103B400043F400132364236C03F400130193019BDB
:103B5000D3E7FDF76CF9D9E7005400400038024084
:103B60000004024008B5AFF3008008BD08B5818BA2
:103B70008069FEF7BBFBB0FA80F0400908BD70B564
:103B800005460C461646002281898068FEF7B5FB83
:103B9000240104F0300406F00F06344344F080049E
:103BA0006C62294651F8240B0A230122FEF7BCFE61
:103BB0000122A989A868FEF7A0FB70BD70B582B08C
:103BC00005460C461646002281898068FEF795FB63
:103BD0006400E4B244F0C104294641F8244F2A4667
:103BE00052F8200B0A230093731CFEF79DFF01225D
:103BF000A989A868FEF781FB02B070BD70B582B0DC
:103C000004460E460022818A0069FEF776FB0120F9
:103C1000FEF716FC0122A18A2069FEF76EFBFEF773
:103C200009FC0546FEF706FC401BB04218D20322F1
:103C300000212046FFF7C2FF206A00F095F98DF8B9
:103C40000400C0F307238DF80530C0F307408DF85A
:103C50000600019800F0B7FA03460028E2D000E021
:103C60000023184602B070BD10B582B00446012290
:103C70004FF480411348FEF740FB04E02279032112
:103C80002046FFF77CFF032200212046FFF796FF26
:103C9000206A00F069F98DF80400C0F307238DF85D
:103CA0000530C0F307408DF80600019800F080FA57
:103CB0000028E3D000224FF480410248FEF71DFBAC
:103CC00002B010BD00040240F8B505460C46164689
:103CD0001F46002281898068FEF70FFB610001F01A
:103CE0003E0141F0C001696226F0FF06314369627E
:103CF000294651F8240B0A237A1CFEF715FE0122EF
:103D0000A989A868FEF7F9FAF8BD01F00F01017161
:103D1000704784B010B502AC84E80F00282000F092
:103D2000ADFA04460023037102AA52F8041B0346AD
:103D300043F8081B92E8030083E8030004F1100332
:103D400005AA92E8030083E8030004F1180307AA18
:103D500092E8030083E803000122A189A068FEF72E
:103D6000CCFA32212046FFF749FF20B12046BDE8BA
:103D7000104004B07047204600F088FA0024F5E7B0
:103D8000F0B585B00446774D28782D798DF80C2054
:103D90008DF80D30022940F2D9804FF0030E022930
:103DA00094BF4FF0000C4FF0010C012940F2D1807C
:103DB0000227012994BF002601260A1E18BF0122EE
:103DC0009DF808306FF301038DF80830DBB26EF315
:103DD00084038DF80830DBB26CF345138DF808309E
:103DE000DBB26FF386138DF808309DF809306FF35E
:103DF00001038DF80930DBB267F384038DF80930D5
:103E0000DBB266F345138DF80930DBB26FF386132E
:103E10008DF809309DF80A306FF301038DF80A30F0
:103E2000DBB262F384038DF80A30DBB262F3451330
:103E30008DF80A30DBB26FF386138DF80A3005294E
:103E400040F289800627052994BF0026012604290F
:103E500040F283804FF0050E042994BF4FF0000C10
:103E60004FF0010C03297BD90422032994BF0021C0
:103E700001219DF804306FF301038DF80430DBB2AB
:103E800067F384038DF80430DBB266F345138DF8D5
:103E90000430DBB26FF386138DF804309DF80530E3
:103EA0006FF301038DF80530DBB26EF384038DF8F8
:103EB0000530DBB26CF345138DF80530DBB26FF3E0
:103EC00086138DF805309DF806306FF301038DF8E9
:103ED0000630DBB262F384038DF80630DBB261F3A7
:103EE00045138DF80630DBB26FF386138DF806307C
:103EF00000F0B4F80246012302212046FFF7E4FE59
:103F0000284600F041F90246012308212046FFF728
:103F1000DBFE039800F0BAF8024602230521204692
:103F2000FFF7D2FE029800F0F6F8024603230721BD
:103F30002046FFF7C9FE019800F0B4F802460323BB
:103F400006212046FFF7C0FE05B0F0BD4FF0000E81
:103F500025E700272DE7002775E74FF0000E7BE7E8
:103F6000002282E7BC4B000882B0C0F380329DF88B
:103F7000003062F300038DF80030C0F30522DBB29D
:103F800062F346038DF80030C0F3C052DBB262F337
:103F9000C7138DF80030C0F380529DF8013062F3F2
:103FA00000038DF80130C0F34052DBB262F34103ED
:103FB0008DF80130C0F30052DBB262F382038DF85A
:103FC0000130C0F3C042DBB262F3C3038DF80130AD
:103FD000C0F38042DBB262F304138DF80130C0F30A
:103FE0004042DBB262F345138DF80130C0F300426A
:103FF000DBB262F386138DF80130020F9DF80230B8
:1040000062F303038DF80230C0F38162DBB262F326
:1040100005138DF80230C0F34062DBB262F3861301
:104020008DF80230C0F30060DBB260F3C7138DF887
:104030000230009BADF804301B0C8DF806300020D8
:104040009DF8043063F307009DF8053063F30F20FB
:104050009DF8063063F3174002B0704700F001028C
:10406000C0F340039B0343EAC233C0F3800243EA38
:104070004233C0F3C00243EA0233C0F3001243EA02
:10408000C223C0F3421043EA0020704782B0ADF86B
:1040900004009DF804009DF805301B0443EA00204D
:1040A00002B0704782B001909DF8042002F0030135
:1040B000C2F382039B0243EA4133C2F3401143EA55
:1040C0004123C2F3801243EA02239DF8052002F047
:1040D000030143EA4153C2F3820143EA8143C2F33D
:1040E000401143EA4143C2F3801243EA02439DF880
:1040F000060000F0030243EA4273C0F3820243EA7F
:104100008263C0F3401243EA4263C0F3801043EA83
:10411000006002B0704782B001909DF8042002F068
:104120000301C2F382039B0243EA4133C2F340110D
:1041300043EA4123C2F3801243EA02239DF805209B
:1041400002F0030143EA4153C2F3820143EA81438F
:10415000C2F3401143EA4143C2F3801243EA0243EF
:104160009DF8060000F0030243EA4273C0F38202A6
:1041700043EA8263C0F3401243EA4263C0F3801013
:1041800043EA006002B0704700F00702C0F3C103C9
:10419000DB0243EA4233C0F3401243EA8223C0F316
:1041A000801243EA4223C0F3C01043EA0020704764
:1041B00082B001909DF8063013F0300F0CBF012043
:1041C000002002B0704782B001909DF8060000F018
:1041D0003000202814BF0020012002B070470000EA
:1041E000DFF834D00D480E490E4A002302E0D458BF
:1041F000C4500433C4188C42F9D30B4A0B4C00232F
:1042000001E013600432A242FBD3FFF72FFC00F061
:1042100011F8FCF767FE7047000005200000002041
:1042200070000020304C000870000020FC060020C8
:10423000FEE7000070B50D4D0D4C641BA410002668
:10424000A64209D10B4D0C4C00F0ACFC641BA41031
:104250000026A64205D170BD55F8043B98470136AB
:10426000EEE755F8043B98470136F2E7284C000882
:10427000284C0008284C00082C4C0008024B014632
:10428000186800F08DB800BF0C000020024B0146FA
:10429000186800F019B800BF0C0000200A449142D1
:1042A00000F1FF3300D1704710B511F8014B03F84E
:1042B000014F9142F9D110BD02440346934200D10F
:1042C000704703F8011BF9E737B5002944D051F8CE
:1042D000043C0190002BA1F10404B8BFE41800F0E5
:1042E00003F91E4A0198136833B96360146003B080
:1042F000BDE8304000F0FEB8A34208D92568611936
:104300008B4201BF19685B6849192160EDE71A46C5
:104310005B680BB1A342FAD911685518A5420BD1BD
:10432000246821445418A3421160E0D11C685B68E2
:10433000536021441160DAE702D90C230360D6E709
:10434000256861198B4204BF19685B68636004BF0C
:10435000491921605460CAE703B030BDE806002067
:1043600070B50E4E0C463168054611B900F08CF858
:1043700030602146284600F087F8431C0AD0C41C50
:1043800024F00304A04207D0211A284600F07CF84C
:10439000013001D14FF0FF34204670BDEC06002003
:1043A0002DE9F041CD1C25F0030508350C2D38BF53
:1043B0000C25002D074601DBA94205D90C233B60E3
:1043C00000263046BDE8F0812E4E00F08DF83368AF
:1043D0001C4634BB29463846FFF7C2FF431C04463F
:1043E0004DD134682646002E40D1236831463846E8
:1043F00004EB030800F048F880453AD12168033502
:104400006D1A25F0030508350C2D38BF0C252946FB
:104410003846FFF7A5FF01302BD023682B442360DB
:104420000EE02268521B1ED40B2A16D96119A34232
:10443000256018BF5960636808BF316062514B60E6
:10444000384604F10B0600F055F826F00706231D48
:10445000F21AB6D09B1BA350B3E76268A3420CBF0D
:1044600032605A60ECE723466468B2E73446766807
:10447000B9E70C233B60384600F03CF8A1E7256023
:10448000DEE700BFE806002038B5064D00230446ED
:1044900008462B6000F078FB431C02D12B6803B167
:1044A000236038BDF00600200EB400B59CB01DABF3
:1044B000029006906FF00041094807910491094964
:1044C00053F8042B05910068019302A900F074F8D9
:1044D000029B00221A701CB05DF804EB03B0704719
:1044E0000C0000200802FFFF014800F0F9BA00BFED
:1044F000F4060020014800F0F4BA00BFF4060020E2
:104500002DE9F0478E689E4282460C4690461F4633
:1045100038D88A8912F4906F32D025680969A5EBE2
:104520000109656905EB450505EBD57501334B447C
:104530006D109D4238BF1D46530531D52946FFF702
:104540002FFF064650B90C23CAF80030A38943F068
:104550004003A3814FF0FF30BDE8F08721694A4650
:10456000FFF79CFEA38923F4906343F08003A381AB
:10457000266165614E44A5EB09052660A5603E46AF
:10458000BE4200D93E4620683246414600F0AAFAB3
:10459000A3689B1BA3602368334423600020DBE7F0
:1045A0002A4600F0B9FA06460028E1D121695046B2
:1045B000FFF78AFEC7E700002DE9F04F98468B8988
:1045C0001B069DB007460D4614460ED50B6963B910
:1045D0004021FFF7E5FE2860286120B90C233B60ED
:1045E0004FF0FF30D1E040236B610023099320237B
:1045F0008DF82930CDF80C803023DFF8A8818DF8B4
:104600002A304FF0010923469A4613F8012B0AB1CC
:10461000252AF9D1BAEB040B0BD05B46224629467A
:104620003846FFF76DFF013000F0AA80099A5A441E
:1046300009929AF80030002B00F0A28000234FF07E
:10464000FF32CDE905230AF1010A049307938DF89F
:1046500053301A935446052214F8011B5148FBF7B6
:10466000DFFD049AD8B9D00644BF20238DF853301B
:10467000110744BF2B238DF853309AF800302A2BB2
:1046800015D0079A544600204FF00A0C214611F825
:10469000013B303B092B4ED9B0B1079214E0A0EB9F
:1046A000080309FA03F313430493A246D2E7039BDA
:1046B000191D1B680391002BBBBF5B4242F0020235
:1046C00007930793B8BF049223782E2B0CD16378FD
:1046D0002A2B35D1039B1A1D1B680392002BB8BFF0
:1046E0004FF0FF3302340593DFF8C8A0217803228E
:1046F0005046FBF795FD40B14023A0EB0A0003FABA
:1047000000F0049B03430134049314F8011B264872
:104710008DF828100622FBF783FD002838D0234BA4
:104720001BBB039B073323F0070308330393099B49
:104730003344099367E70CFB02320C460120A5E7DE
:1047400000230134059319464FF00A0C204610F857
:10475000012B303A092A03D9002BC5D00591C3E7B4
:104760000CFB012104460123F0E703AB00932A462A
:104770000F4B04A93846AFF30080421C0646D6D141
:10478000AB895B063FF52CAF09981DB0BDE8F08FF3
:1047900003AB00932A46064B04A9384600F07AF88A
:1047A000EBE700BFEC4B0008F64B000800000000F0
:1047B00001450008F24B00082DE9F04716469946DE
:1047C0008A680B69DDF820809342B8BF13463360D6
:1047D00091F8432007460C460AB101333360236841
:1047E000990642BF336802333360256815F0060529
:1047F00006D104F1190AE36832689B1AAB4226DC41
:1048000094F84320131E226818BF012392062BD46C
:1048100004F1430249463846C04701301ED02368A0
:10482000E568326803F00603042B08BFAD1AA368DD
:1048300022690CBF25EAE57500259342C4BF9B1A87
:10484000ED1800261A34B5421AD1002008E00123E1
:10485000524649463846C047013003D14FF0FF3039
:10486000BDE8F0870135C6E7E1185A1C302081F811
:104870004300224494F8451082F843100233C7E7FE
:104880000123224649463846C0470130E6D001366A
:10489000D9E700002DE9FF470F7E0C9D782F914648
:1048A00080460C469A4601F1430207D8622F0AD887
:1048B000002F00F0D880582F00F0A38004F14205AB
:1048C00084F842703AE0A7F16303152BF6D801A1F2
:1048D00051F823F02D49000841490008BD4800085F
:1048E000BD480008BD480008BD480008414900080F
:1048F000BD480008BD480008BD480008BD48000884
:104900004D4A0008714900082F4A0008BD480008B8
:10491000BD4800086F4A0008BD48000871490008FA
:10492000BD480008BD480008374A00082B681A1D1A
:104930001B682A6004F1420584F842300123A3E099
:1049400020682968060601F104030AD50E682B6069
:10495000002E03DA2D23764284F843305E480A2382
:1049600019E00E682B6010F0400F18BF36B2EFE769
:104970002B682068191D2960010601D51E6802E018
:104980004606FBD51E8854486F2F0CBF08230A2308
:10499000002184F843106568A560002DA2BF21683E
:1049A00021F0040121600EB9002D4DD01546B6FB53
:1049B000F3F103FB1167C75D05F8017D3746BB4284
:1049C0000E46F4D9082B0BD12368DE0708D52369DE
:1049D00061689942DEBF302305F8013C05F1FF35DF
:1049E000521B2261CDF800A04B4603AA2146404647
:1049F000FFF7E2FE01304CD14FF0FF3004B0BDE8CC
:104A0000F087354881F845702968236851F8046BB0
:104A100029601D0614D5DF0744BF43F0200323603F
:104A20001EB9236823F0200323601023B0E7236816
:104A300043F0200323607823284884F84530E3E7D7
:104A4000590648BFB6B2E6E71546BBE72B682668AD
:104A50006169181D286035061B6801D5196002E0E0
:104A60007006FBD51980002323611546BAE72B6831
:104A70001A1D2A601D68626800212846FBF7D0FBDA
:104A800008B1401B606063682361002384F84330F1
:104A9000A8E723692A4649464046D0470130ABD0B3
:104AA00023689B0713D4E068039B9842B8BF18465D
:104AB000A4E70123324649464046D04701309BD007
:104AC0000135E36803995B1AAB42F2DCEBE70025A2
:104AD00004F11906F5E700BFFD4B00080E4C000875
:104AE00070477047884210B501EB020402D9844236
:104AF000234607D8431EA14208D011F8012B03F822
:104B0000012FF8E7024401468A4200D110BD13F894
:104B1000014D02F8014DF7E72DE9F04180461446BA
:104B20000E4621B9BDE8F0411146FFF739BC2AB95C
:104B3000FFF7CAFB25462846BDE8F08100F01BF8C8
:104B40008442074602D8B4EB500F12D821464046A3
:104B5000FFF726FC05460028EDD0BC422246314630
:104B600028BF3A46FFF79AFB31464046FFF7ACFBB9
:104B7000E1E73546DFE751F8043C181F002BBCBFC6
:104B80000B58C01870470000044A05491368002BF1
:104B900008BF0B461844106018467047F8060020FE
:104BA00000070020F8B500BFF8BC08BC9E4670475F
:0C4BB000F8B500BFF8BC08BC9E4670477A
:104BBC00F6000000C800000025642C25642C256438
:104BCC002C25642C25640A00000000000000000065
:104BDC000102030406070809000000000102030497
:104BEC00232D302B2000686C4C00656667454647CA
:104BFC00003031323334353637383941424344454D
:104C0C0046003031323334353637383961626364BB
:044C1C0065660000C9
:084C20003CBDFF7F0100000014
:044C2800F50100088A
:044C2C00D1010008AA
:104C300001000000100000000024F400100000201B
:104C40000000000000000000000000000000000064
:104C50000000000000000000000000000000000054
:104C60000000000000000000000000000000000044
:104C70000000000000000000000000000000000034
:104C80000000000000000000000000000000000024
:104C90000000000000000000000000000000000014
:04000005080041E1CD
:00000001FF
